:100000000C9463000C948B000C948B000C94B3063E
:100010000C94B3060C94B3060C948B000C948B00D8
:100020000C948B000C948B000C948B000C948B0024
:100030000C948B000C948B000C948B000C948B0014
:100040000C943B050C948B000C9409050C94E30470
:100050000C948B000C948B000C948B000C948B00F4
:100060000C9485050C948B000000000024002700F0
:100070002A0000000008000201000003040700003D
:1000800000000000000000000000250028002B00F8
:1000900000000000230026002900040404040404D6
:1000A0000404020202020202030303030303010227
:1000B00004081020408001020408102001020408F6
:1000C00010202D07F30911241FBECFEFD8E0DEBFAB
:1000D000CDBF12E0A0E0B1E0EAE7F4E102C0059094
:1000E0000D92AE31B107D9F723E0AEE1B2E001C025
:1000F0001D92AA3BB207E1F710E0C2E6D0E004C0CF
:100100002197FE010E94250AC136D107C9F70E9436
:1001100022080C94300A0C940000CF92DF92EF92E8
:10012000FF920F931F93CF93DF936C017A018B01A2
:10013000C0E0D0E0CE15DF0589F0D8016D918D01CA
:10014000D601ED91FC910190F081E02DC601099559
:10015000892B11F47E0102C02196ECCFC701DF91FB
:10016000CF911F910F91FF90EF90DF90CF90089566
:10017000FC01918D828D981761F0828DDF01A80FAF
:10018000B11D5D968C91928D9F5F9F73928F90E0D1
:1001900008958FEF9FEF0895FC01918D828D981740
:1001A00031F0828DE80FF11D858D90E008958FEF7D
:1001B0009FEF0895FC01918D228D892F90E0805C46
:1001C0009F4F821B91098F73992708958AED92E0C2
:1001D0000E94DA0021E0892B09F420E0822F0895A3
:1001E000FC01848DDF01A80FB11DA35ABF4F2C91D4
:1001F000848D90E001968F739927848FA689B789A3
:100200002C93A089B1898C9180648C93938D848D7B
:10021000981306C00288F389E02D80818F7D80834A
:100220000895EF92FF920F931F93CF93DF93EC010A
:1002300081E0888F9B8D8C8D981305C0E889F989A2
:10024000808185FD24C0F62E0B8D10E00F5F1F4FBF
:100250000F731127E02E8C8DE8120CC00FB607FC2F
:10026000FACFE889F989808185FFF5CFCE010E9418
:10027000F000F1CF8B8DFE01E80FF11DE35AFF4F27
:10028000F0820B8FEA89FB898081806207C0EE894A
:10029000FF896083E889F98980818064808381E0B7
:1002A00090E0DF91CF911F910F91FF90EF90089513
:1002B000CF93DF93EC01888D8823C9F0EA89FB890D
:1002C000808185FD05C0A889B9898C9186FD0FC004
:1002D0000FB607FCF5CF808185FFF2CFA889B989D9
:1002E0008C9185FFEDCFCE010E94F000E7CFDF912A
:1002F000CF91089580E090E0892B29F00E94E600DC
:1003000081110C9400000895833081F028F481302D
:1003100099F08230A1F008958730A9F08830B9F0C3
:100320008430D1F4809180008F7D03C08091800063
:100330008F7780938000089584B58F7702C084B54D
:100340008F7D84BD08958091B0008F7703C0809128
:10035000B0008F7D8093B0000895CF93DF93282F56
:1003600030E0F901EE58FF4F8491F901E255FF4F5B
:10037000D491F901E656FF4FC491CC2391F081113D
:100380000E948401EC2FF0E0EE0FFF1FE057FF4FBB
:10039000A591B491EC91ED2381E090E021F480E00F
:1003A00002C080E090E0DF91CF9108951F93CF933A
:1003B000DF93282F30E0F901EE58FF4F8491F901C7
:1003C000E255FF4FD491F901E656FF4FC491CC237B
:1003D000C9F0162F81110E948401EC2FF0E0EE0F7E
:1003E000FF1FEA57FF4FA591B4918FB7F8941111F1
:1003F00005C09C91ED2FE095E92302C0EC91ED2B17
:10040000EC938FBFDF91CF911F910895CF93DF932E
:1004100090E0FC01E255FF4F2491FC01E656FF4FAE
:100420008491882361F190E0880F991FFC01E859BD
:10043000FF4FC591D491FC01EA57FF4FA591B491AC
:10044000611109C09FB7F894888120958223888321
:10045000EC912E230BC0623061F49FB7F894388181
:10046000822F809583238883EC912E2B2C939FBF22
:1004700006C08FB7F894E8812E2B28838FBFDF91B9
:10048000CF91089585ED8093BC008091BC0084FDE0
:10049000FCCF1092A702089540918102262F30E0F0
:1004A000240F311D21323105DCF42091A7022430C4
:1004B000C9F4FC0180E090E0861758F43091810285
:1004C0002191DC01A15ABD4FA30FB11D2C930196C0
:1004D000F3CF80918102680F6093810280E00895DC
:1004E00081E0089582E0089508958FEF9FEF0895C9
:1004F0008FEF9FEF089580915E0290E09195819536
:1005000091090895CF93DF9300D0CDB7DEB7CB012B
:10051000642F49835A830E944C024981842F5A8157
:10052000952F0F900F90DF91CF910895CF93DF9388
:100530001F92CDB7DEB7698361E0CE0101960E94BC
:100540004C0281E090E00F90DF91CF9108952091CF
:10055000D8023091D9022817390771F49091D60248
:100560008091D702981741F0E091D602F0E0E25E68
:10057000FD4F808190E008958FEF9FEF08950895DB
:100580001F93CF93DF93DC015C962D913C915D9797
:100590002115310539F481E090E013969C938E93F8
:1005A00012973DC05196ED91FC91529750969C91B7
:1005B0005097892F80951FB75E964C915E9741FBAF
:1005C000772770F941FD6095F8944081772311F009
:1005D000492B01C048234083E9012197F1F748E006
:1005E000508160FF02C0592B01C058235083E9019C
:1005F0002197F1F76695415099F7772321F0908183
:100600008923808303C08081982B90831FBF5C96D1
:100610008D919C915D970197F1F721E030E0C90140
:10062000DF91CF911F9108952091D8023091D90286
:100630002817390771F48091D7022091D60290E0F3
:10064000805C9F4F821B910960E470E00E94FD096D
:10065000089580E090E008952091D8023091D90269
:1006600028173907B9F49091D6028091D7029817CC
:1006700089F0E091D602F0E0E25EFD4F80812091AA
:10068000D60230E02F5F3F4F2F7333272093D602DF
:1006900090E008958FEF9FEF0895E091D802F091D8
:1006A000D902E817F90769F4A389B4899C9185896F
:1006B000809589238C931092D9021092D80281E000
:1006C000089580E00895CF93DF93EC0160E08E8180
:1006D0000E94D60161E08E810E94D60160E08E8189
:1006E0000E94D6018BE891E00197F1F7DF91CF915D
:1006F0000895CF92DF92EF92FF920F931F93CF93C3
:10070000DF937C016C0187E0C80ED11CC0E0D0E013
:10071000062F10E0B8010C2E02C0759567950A945B
:10072000E2F76170F60181916F010E94D601219676
:10073000C430D10579F7C701DF91CF911F910F9197
:10074000FF90EF90DF90CF900C946303CF92DF92F5
:10075000EF92FF920F931F93CF93DF93EC01F62E4E
:10076000642F8C810E94D6018D818F3F19F060E04B
:100770000E94D6018F850F2D10E084FF25C06E01E9
:1007800087E0C80ED11CE12CF12CB8010E2C02C060
:10079000759567950A94E2F76170F60181916F0192
:1007A0000E94D601FFEFEF1AFF0A88E0E816F10475
:1007B00061F7CE01DF91CF911F910F91FF90EF90E4
:1007C000DF90CF900C946303B80184E07595679532
:1007D0008A95E1F7CE010E9479036F2DCE01DF915A
:1007E000CF911F910F91FF90EF90DF90CF900C94DD
:1007F000790341E00E94A60381E090E0089540E083
:100800000C94A603EF92FF920F931F93CF93DF9365
:10081000EC01623018F08F8588608F876B8B1C8AA3
:1008200080E48D8B80E18E8B80E58F8B61E08C8105
:100830000E9406028D818F3F19F061E00E9406023E
:1008400061E08E810E9406027E0187E0E80EF11CC5
:1008500000E010E08F8584FD03C084E090E002C0DA
:1008600088E090E0081719074CF461E0F7018191E6
:100870007F010E9406020F5F1F4FECCF8BE39DE0CC
:100880000197F1F760E08C810E94D60160E08E81D3
:100890000E94D6018D818F3F19F060E00E94D60141
:1008A0006F8564FD1DC063E0CE010E9479030BE4F7
:1008B00016E4C8010197F1F763E0CE010E947903C5
:1008C000C8010197F1F763E0CE010E94790383E547
:1008D00092E00197F1F762E0CE010E94790316C021
:1008E0006062CE010E94FF038BE496E40197F1F76A
:1008F0006F856062CE010E94FF0383E592E001975D
:10090000F1F76F856062CE010E94FF036F85606220
:10091000CE010E94FF0384E0888B6CE0CE010E9430
:10092000FF0361E0CE010E94FF038BE39FE101978B
:10093000F1F782E0898B66E0CE01DF91CF911F91C4
:100940000F91FF90EF900C94FF03843008F083E048
:100950009091B503891710F08FEF890FE82FF0E021
:10096000EE55FC4F6489606882EA93E00C94FF03C3
:100970000E942B0A6115710579F0FB01019000209E
:10098000E9F73197AF01461B570BDC01ED91FC9164
:100990000280F381E02D099480E090E008950F93A8
:1009A0001F93CF93DF93EC010E94BA048C0168E39C
:1009B00071E0CE010E94BA04800F911FDF91CF91A8
:1009C0001F910F9108951F920F920FB60F9211244D
:1009D0002F933F934F935F936F937F938F939F9347
:1009E000AF93BF93EF93FF938AED92E00E94F000E4
:1009F000FF91EF91BF91AF919F918F917F916F91F7
:100A00005F914F913F912F910F900FBE0F901F90CC
:100A100018951F920F920FB60F9211242F938F9358
:100A20009F93EF93FF93E091EA02F091EB028081B4
:100A3000E091F002F091F10282FD12C0908180916C
:100A4000F3028F5F8F732091F402821751F0E091CF
:100A5000F302F0E0E652FD4F958F8093F30201C060
:100A60008081FF91EF919F918F912F910F900FBEF9
:100A70000F901F9018951F920F920FB60F9211248E
:100A80002F933F938F939F93AF93BF938091D20205
:100A90009091D302A091D402B091D5023091D102AD
:100AA00023E0230F2D3720F40196A11DB11D05C0B1
:100AB00026E8230F0296A11DB11D2093D102809339
:100AC000D2029093D302A093D402B093D502809126
:100AD000CD029091CE02A091CF02B091D0020196AA
:100AE000A11DB11D8093CD029093CE02A093CF02A1
:100AF000B093D002BF91AF919F918F913F912F9171
:100B00000F900FBE0F901F9018951F920F920FB667
:100B10000F9211242F933F934F935F936F937F9383
:100B20008F939F93AF93BF93EF93FF938091B900FF
:100B3000887F803609F49CC068F5883209F45BC070
:100B400090F4803109F454C038F4882309F4F6C0D5
:100B5000883009F44DC0F6C0883109F44CC08032A9
:100B600009F45DC0EFC0803409F468C048F48033F4
:100B700009F455C0883309F0E5C08093A602D8C0B7
:100B8000803509F44FC0883509F45DC0883409F018
:100B9000D9C0D6C0883909F4C7C0A8F4883709F489
:100BA00067C038F4883609F463C0803709F460C040
:100BB000C9C0883809F4B8C0803909F45FC08038EA
:100BC00009F0C0C05BC0803B09F486C038F4803AAD
:100BD00009F466C0883A09F47FC0B4C0803C09F4C7
:100BE000A7C0883C09F4A4C0883B09F48AC0AAC005
:100BF0008091CC0210C09091CB028091CA029817CC
:100C000070F5E091CB0281E08E0F8093CB02F0E093
:100C1000E655FD4F80818093BB0085EC86C08093B4
:100C2000A6028EC0E091CB0281E08E0F8093CB02B2
:100C30008091BB00F0E0E655FD4F80839091CB02A0
:100C40008091CA026EC0E091CB0281E08E0F80934A
:100C5000CB028091BB00F0E0E655FD4F8083809190
:100C6000A90281116DC081E08093A80284EA61C06D
:100C700083E08093A7021092A502CFCF8091A502B6
:100C8000803208F051C0E091A50281E08E0F809380
:100C9000A5028091BB00F0E0EB57FD4F8083BDCFF4
:100CA00085EC8093BC001092A7028091A50280324F
:100CB00030F4E091A502F0E0EB57FD4F1082609117
:100CC000A50270E0E0918302F091840285E892E051
:100CD00009951092A50236C084E08093A702109275
:100CE000820210928102E0917F02F09180020995C8
:100CF00080918102811105C081E080938102109270
:100D00005F02E091820281E08E0F80938202F0E028
:100D1000E15AFD4F80818093BB00909182028091C7
:100D20008102981708F479CF85E88093BC000AC047
:100D300085EC8093BC001092A70204C01092A6021A
:100D40000E944202FF91EF91BF91AF919F918F91CD
:100D50007F916F915F914F913F912F910F900FBEB7
:100D60000F901F9018951F920F920FB60F9211249B
:100D70002F933F934F935F936F937F938F939F93A3
:100D8000AF93BF93EF93FF93E091D802F091D90214
:100D9000309709F451C0968DA685B785858591FF5A
:100DA00004C09C91892329F447C09C91892309F0B0
:100DB00043C0A389B4899C918589809589238C93AC
:100DC000868997890197F1F7608D718DA685B78522
:100DD000558538E020E0CB010197F1F7822F90E0B4
:100DE00095958795282F4C91452309F0206831501F
:100DF00091F7868D81FD20958091D70290E0019634
:100E00008F7399273091D602381749F0A091D702F5
:100E1000B0E0A25EBD4F2C938093D70203C0868DB5
:100E20008160868F828D938D0197F1F7A389B489B4
:100E30009C918589892B8C93FF91EF91BF91AF9104
:100E40009F918F917F916F915F914F913F912F91E2
:100E50000F900FBE0F901F901895CF92DF92EF92D8
:100E6000FF921092DD021092DC0298EEC92E93E000
:100E7000D92EE12CF12CC092DE02D092DF02E0925A
:100E8000E002F092E10284E091E09093DB02809333
:100E9000DA0285EC90E09093E7028093E60284EC1E
:100EA00090E09093E9028093E80280EC90E09093C8
:100EB000EB028093EA0281EC90E09093ED02809344
:100EC000EC0282EC90E09093EF028093EE0286ECCD
:100ED00090E09093F1028093F0021092F30210924E
:100EE000F4021092F5021092F60210927A03109218
:100EF0007903C0927B03D0927C03E0927D03F09251
:100F00007E0384E191E090937803809377031092BD
:100F1000A5031092A40384E391E09093A30380932C
:100F2000A20383E08093A6038FEF8093A70382E060
:100F30008093A8038BE08093A9038AE08093AA039F
:100F400089E08093AB0388E08093AC031092AD03FB
:100F50001092AE031092AF031092B0031092B1033F
:100F600061E082EA93E00E940204109286031092EC
:100F70008503C0928703D0928803E0928903F092A0
:100F80008A0384E291E09093840380938303109218
:100F90009A031092990310929C0310929B03109253
:100FA0009E0310929D031092A00310929F036091E4
:100FB000A1036E7F6D7F6093A1036695617081E0F0
:100FC000682786E00E94D60161E086E00E94060262
:100FD000E4EBF0E0E491E0939303E0EAF0E0E491E5
:100FE000F0E0EE0FFF1FEA57FF4F85919491909329
:100FF00095038093940360E081E00E940602809153
:10100000A10381FD04C061E081E00E94D60181E07E
:1010100080938F03EFEAF0E0E491E0939003EBE933
:10102000F0E0E491F0E0EE0FFF1FE057FF4F8591F5
:1010300094919093920380939103FF90EF90DF90AF
:10104000CF900895789484B5826084BD84B5816022
:1010500084BD85B5826085BD85B5816085BD809183
:101060006E00816080936E001092810080918100FB
:1010700082608093810080918100816080938100F3
:10108000809180008160809380008091B1008460B5
:101090008093B1008091B00081608093B000809116
:1010A0007A00846080937A0080917A0082608093D5
:1010B0007A0080917A00816080937A0080917A0032
:1010C000806880937A001092C10010929E03109263
:1010D0009D0310929C0310929B0310929A0310920E
:1010E00099038DE991E09093A00380939F039091E1
:1010F0008F03963108F057C02DEB30E030939A0300
:10110000209399032BE931E030939C0320939B03B8
:101110002CE231E030939E0320939D0320916800E0
:10112000983050F031E09E3008F430E081E001C0AA
:10113000880F3A95EAF701C084E0822B809368001B
:10114000983038F09E3040F0963148F020E030E0A2
:1011500008C02DE630E005C02BE630E002C02CE6EA
:1011600030E03093970320939603983030F481E079
:1011700001C0880F9A95EAF70EC0292F30E09E3003
:1011800018F42850310902C02E50310981E001C005
:10119000880F2A95EAF78093980380919F03909196
:1011A000A0030197F1F780919D0390919E03892BF5
:1011B00021F18091D8029091D90223E083389207DF
:1011C000E1F0009711F00E944D038091A1038E7F02
:1011D0008093A1031092D7021092D60283E893E085
:1011E0009093D9028093D802E0919603F0919703EF
:1011F000908180919803892B8083E091EA02F0919D
:10120000EB0282E08083E091E602F091E702108237
:10121000E091E802F091E9028FEC80831092F202F3
:10122000E091EE02F091EF0286E08083E091EC0223
:10123000F091ED02808180618083E091EC02F09179
:10124000ED02808188608083E091EC02F091ED02F4
:10125000808180688083E091EC02F091ED028081D2
:101260008F7D808362E082EA93E00E94020460E066
:101270008EE00E94060260E08FE00E94060260E0BD
:1012800080E10E94060261E087E00E94060260E0C1
:1012900085E00E94060280E00E94A5046BE371E0F5
:1012A00082EA93E00E94BA048EE00E94AD017C01C4
:1012B0008FE00E94AD018C0180E10E94AD01EC0144
:1012C00087E00E94AD01EA94EF2809F089C001305F
:1012D000110509F050C0C130D10541F560E087E04B
:1012E0000E94D60181E00E94A5046CE471E082EACC
:1012F00093E00E94BA046BE571E083E893E00E94FA
:10130000BA0466E671E083E893E00E94CF0466E6E3
:1013100071E08AED92E00E94CF0462E871E08AED0C
:1013200092E00E94CF046FE971E050C0CD2B09F02C
:1013300057C061E087E00E94D60181E00E94A504C9
:1013400060EB71E082EA93E00E94BA046BE571E021
:1013500083E893E00E94BA0466E671E083E893E0D4
:101360000E94CF0466E671E08AED92E00E94CF040D
:101370006FEB71E025C0012B99F5CD2B89F561E06C
:1013800087E00E94D60181E00E94A5046EEE71E024
:1013900082EA93E00E94BA046BE571E083E893E08F
:1013A0000E94BA0466E671E083E893E00E94CF04ED
:1013B00066E671E08AED92E00E94CF046DEF71E085
:1013C0008AED92E00E94CF046EED71E08AED92E02A
:1013D0000E94CF0469EF71E08AED92E00E94CF0491
:1013E0000E947A0158CF84E291E090938403809325
:1013F000830383E893E00C944D0397FB072E16F4C8
:10140000009407D077FD09D00E94110A07FC05D08F
:101410003EF4909581959F4F0895709561957F4F0B
:101420000895AA1BBB1B51E107C0AA1FBB1FA6172B
:10143000B70710F0A61BB70B881F991F5A95A9F77D
:1014400080959095BC01CD010895EE0FFF1F05908A
:10145000F491E02D099481E090E0F8940C94300A26
:1014600010E0C2E6D0E004C0FE010E94250A2196E9
:0A147000C336D107C9F7F894FFCF87
:10147A000000000011018D00DA00B800CC0058010C
:10148A0000000000960282027B0278027502740252
:10149A0000000000C0028D0014032C03A702BF0243
:1014AA0000000000F9038D000D0A0057617465728F
:1014BA00204D616E6167656D656E740054616E6B77
:1014CA002069732046554C4C20200041542B434D33
:1014DA0047463D310D004154202B20434D475320B0
:1014EA003D20222B323633373834363030393838CB
:1014FA0022005468652074616E6B206973206174E0
:10150A002046756C6C20436170616369747900547C
:10151A006865204D6F746F72206973204F464600CC
:10152A0054616E6B206973204D656469756D005452
:10153A0068652074616E6B206973206174204D6543
:10154A006469756D204361706163697479005468D8
:10155A0065204D6F746F72206973204F4E0054617D
:10156A006E6B206973204C4F572020200054686509
:10157A002074616E6B206973206174204D696E69F5
:0E158A006D756D2043617061636974790000B6
:107E0000112484B714BE81FFF0D085E080938100F7
:107E100082E08093C00088E18093C10086E0809377
:107E2000C20080E18093C4008EE0C9D0259A86E02C
:107E300020E33CEF91E0309385002093840096BBD3
:107E4000B09BFECF1D9AA8958150A9F7CC24DD24C4
:107E500088248394B5E0AB2EA1E19A2EF3E0BF2EE7
:107E6000A2D0813461F49FD0082FAFD0023811F036
:107E7000013811F484E001C083E08DD089C08234E0
:107E800011F484E103C0853419F485E0A6D080C0E4
:107E9000853579F488D0E82EFF2485D0082F10E0AE
:107EA000102F00270E291F29000F111F8ED06801E7
:107EB0006FC0863521F484E090D080E0DECF843638
:107EC00009F040C070D06FD0082F6DD080E0C81688
:107ED00080E7D80618F4F601B7BEE895C0E0D1E017
:107EE00062D089930C17E1F7F0E0CF16F0E7DF06D8
:107EF00018F0F601B7BEE89568D007B600FCFDCFD4
:107F0000A601A0E0B1E02C9130E011968C91119780
:107F100090E0982F8827822B932B1296FA010C0160
:107F200087BEE89511244E5F5F4FF1E0A038BF0790
:107F300051F7F601A7BEE89507B600FCFDCF97BE46
:107F4000E89526C08437B1F42ED02DD0F82E2BD052
:107F50003CD0F601EF2C8F010F5F1F4F84911BD097
:107F6000EA94F801C1F70894C11CD11CFA94CF0C13
:107F7000D11C0EC0853739F428D08EE10CD085E9AC
:107F80000AD08FE07ACF813511F488E018D01DD067
:107F900080E101D065CF982F8091C00085FFFCCF94
:107FA0009093C60008958091C00087FFFCCF809118
:107FB000C00084FD01C0A8958091C6000895E0E648
:107FC000F0E098E1908380830895EDDF803219F02E
:107FD00088E0F5DFFFCF84E1DECF1F93182FE3DFCA
:107FE0001150E9F7F2DF1F91089580E0E8DFEE27F6
:047FF000FF270994CA
:027FFE00040479
:0400000300007E007B
:00000001FF
